:1000000002308A00052A0000FF00030E8301A100D0
:100010000A08A0008A010408A2007708A300780853
:10002000A4007908A5007A08A60003170D08031399
:10003000A70003170F080313A80003170C080313E6
:10004000A90003170E080313AA00831383128B1D44
:100050002B280B1852288C308400001C31280C18D7
:100060005528220884002308F7002408F8002508F2
:10007000F9002608FA00270803178D000313280843
:1000800003178F000313290803178C0003132A0892
:1000900003178E00031320088A00210E8300FF0E31
:1000A0007F0E09008A110A1258288A110A127E2826
:1000B000831686178312861B66280130AF002C0B2F
:1000C0006328003064280130AC00AB01831686152C
:1000D000831286197028AF08031D70280130B10003
:1000E00083160615831206197A28AF08031D7A288D
:1000F0000130B2000B108A110A1231288E01FE3035
:100100008F000C308E00AE0AAB0803199B282E0816
:100110000F3C0319AE01AE08031D92288316061288
:10012000831206162D082E02031D9A288316061226
:1001300083120612B128AC080319B1282E08193C05
:100140000319AE01AE08031DA928831606138312F6
:1001500006172E08033C031DB128831606138312CD
:1001600006130C108A110A123128733A6F38A03B1B
:100170006F39EB34EE330D050000693AE536731D37
:10018000A01264100D05000025322038E5377036C6
:100190006510EC32663AA0060A0094138C114008F0
:1001A00093000230941BDB288C1DD428003083166A
:1001B000111B01308312F80008003D08BE003C0806
:1001C000BF00831611141118E328B0308312C00049
:1001D000CD200230C000CD203E08C000CD203F0819
:1001E000C000CD20831611151119F42883120800C0
:1001F0003D3084008313000803190B290230F800F6
:10020000F701F70B0129F80B00299730F700F70BDE
:100210000729800BFE2808000B08BD008B138316EE
:1002200003178C170C140000000083120313BD1B6E
:100230008B170318442903170C087F390313BD00DB
:1002400003170D080313BE0003170F080313BF00A5
:100250003D080C1E292999003E0803178D00031341
:100260003F0803178F0003130B08C0008B1383167E
:1002700003178C170C140000000083120313C01B1B
:100280008B17BC0B4429642903170C0D0E0D7F3905
:100290000313BD0003170D080313BE0003170F0857
:1002A0000313BF003D080C1E532999003E08031795
:1002B0008D0003133F0803178F008D0A03198F0A5F
:1002C00003100313BC0B0C2908004308F801420279
:1002D00003186D294208F7007929F7010830C40096
:1002E000C20DF70D430877020318F700F80DC40B91
:1002F0007029080020303D1E3030BE003C08F70059
:10030000BC1F8A29F709F70A7708BC002D30BE0008
:10031000BD173D143C08C2006430C3006521770856
:10032000BC0030307807BF003C08C2000A30C30070
:10033000652130307707C10030307807C0003E08B3
:10034000F70030303F020319A929BD14BD1B3D152C
:10035000BD293E08BF002030BE00303040020319E6
:10036000B5293D14BD1BBD14BD29031D3D14031D3E
:10037000BD293F08C0002030BF003D19C429BD1869
:10038000C8293D18CC29D0293E080C1EC529990042
:100390003F080C1EC929990040080C1ECD29990060
:1003A00041080C1ED129990008008E01FE308F00F3
:1003B0000C308E0083160C1401308312AD0008300F
:1003C000B900FA30BD00F820B90BE1290230AD00C8
:1003D0000830B900FA30BD00F820B90BEA29013025
:1003E000AD000830B900FA30BD00F820B90BF32990
:1003F0000130AC00AB018316061383120617831677
:100400000C1483128A110A12682B03081F39830007
:10041000713083168F0090010F08031787110C307D
:1004200003139900A2309800903083129800AB011A
:10043000AC010130AD00AE01AF01B001B101B201BC
:10044000FF30B300B31533088316870083123316C9
:1004500033088316870013309300283083129400EA
:100460008316941714138312B501B401831603176E
:100470000908C039890003131F129F1200300317A7
:100480008800831287018801890183138316090874
:10049000C039890003131F129F120130031788000F
:1004A000831203131F179F1783169F1783121F149E
:1004B0000030F8001F08C33978049F004230F7006D
:1004C000F70B602A00008B158316961783128B1585
:1004D00083169615C03083128B04253090008E0150
:1004E000FE308F000C308E0083160C148312B60180
:1004F0000230B7000830B800BD013808BC00DD206C
:10050000AF080319692B9F149F18842A1E08FA004C
:1005100083161E088312B9007A08BA00BA08031DB0
:10052000952A3908643C0318652BAC080319652B20
:10053000AB08031D652B3708B90083160C10061392
:10054000831206138316861283128616AC010230BC
:10055000BC00FA30BD00F820BC0BA92A8316861215
:10056000831286123808013C031C122BAF01B530F0
:1005700003178D0000308F0003130B08BC008B1392
:10058000831603178C170C1400000000831203134A
:10059000BC1B8B1703170C087F390319112B03138E
:1005A000BC0003170D080313BD0003170F08031346
:1005B000BE003C080C1EDA2A99003D0803178D0086
:1005C00003133E0803178F0003130B08BF008B13A0
:1005D000831603178C170C140000000083120313FA
:1005E000BF1B8B1703170C0D0E0D7F390319112B31
:1005F0000313BC0003170D080313BD0003170F08F6
:100600000313BE003C080C1E032B99003D08031782
:100610008D0003133E0803178F008D0A03198F0AFC
:10062000BC2A0313B60ABD3003178D0000308F00BB
:10063000031007300313BC000C213608BC0018302F
:10064000BD007A2120300C1E232B99000D300C1E8A
:10065000272B99000A300C1E2B2B99000430BA006E
:10066000FA30BD00F820BA0B302B390836020318D7
:100670004A2B0130AC00831606138312061783162B
:100680000C1404308312BA00FA30BD00F820BA0B03
:10069000442B652BB6010130AB00B803BD0138080F
:1006A000BC00DD203808BC001830BD007A21C53000
:1006B00003178D0000308F0003100F300313BC00B0
:1006C0000C213808013C0318AF01AB08031DD529E4
:1006D0006D2B83160613831206139F149F186E2B1F
:1006E0001E08FA0083161E088312B9001E08BA00FD
:1006F000BD003908BC00DD20B10803198B2BB80AF6
:100700003808103C0318862B1030B800BD0138089B
:10071000BC00DD20B101B2080319972BB80B922B56
:100720000130B800BD013808BC00DD20B201802ACC
:02073000630064
:04400E00C42FFF3F7D
:00000001FF
;PIC16F886
;CRC=6758  CREATED="04-เม.ย.-19 13:31"
