:1000000001308A0008290000FF00030E8301A100CF
:100010000A08A0008A010408A2007708A300780853
:10002000A4007908A5007A08A600831383128B1D0B
:100030001B280B1832288C308400001C21280C1837
:100040003528220884002308F7002408F800250832
:10005000F9002608FA0020088A00210E8300FF0E0E
:100060007F0E09008A110A126F288A110A12382895
:100070008E01FF308F00CE308E00AB0AA808031926
:1000800055282B08963C0319AB01AB08031D4C28DF
:1000900083160612831206162A082B02031D542803
:1000A00083160612831206126B28A90803196B28FF
:1000B0002B08FA3C0319AB01AB08031D6328831618
:1000C00006138312061730082B02031D6B288316B4
:1000D0000613831206130C108A110A1221288316A4
:1000E00086178312861B80282F08013C03187B2863
:1000F0000230AE007D280130AE000130A900A80119
:100100000B108A110A1221284C3084008313000836
:10011000031997280230F800F701F70B8D28F80B28
:100120008C289730F700F70B9328800B8A2808005B
:1001300094138C11510893000230941BA6288C1D37
:100140009F2800308316111B01308312F80008002D
:100150004E08CF004D08D000831611141118AE2898
:10016000B0308312D10098200230D10098204F087F
:10017000D10098205008D10098208316111511192C
:10018000BF288312080083160C100613831206136F
:100190008316861283128616A9010230CB00FA302C
:1001A000CC008420CB0BCF288316861283128612B4
:1001B00008000130A9002830B00083160C149630D6
:1001C0008312CC0084201E30B00083160C148312DE
:1001D0000800C5012F0845020318F8284508430701
:1001E000840083134418831701308000C50AEA286D
:1001F0002F08C50045080B3C031C07294508430789
:1002000084008313441883178001C50AFA28080064
:1002100003081F3983008316031787110C3003135B
:100220009900A2309800903083129800FF30A70008
:10023000A715270883168700831227162708831619
:10024000870013309300283083129400831694178C
:1002500014138312A801A9011130AA00AB01AC014B
:10026000AD01AE01AF011E30B000831603170908BF
:10027000C039890003131F129F1200300317880032
:100280008312870188018901831383160908C03905
:10029000890003131F129F12013003178800831275
:1002A00003131F179F1783169F1783121F14003005
:1002B000F8001F08C33978049F004230F700F70B9D
:1002C0005F2900008B1583169617C03083128B04AC
:1002D000253090008E01FF308F00CE308E0001302F
:1002E000A8000930AA0083160C1404308312C3003E
:1002F000FA30CC008420C30B7829A80183160C1097
:100300008312AB01B1010230B20083160C148312C8
:10031000B401B301B501B601B701B801B901BA0121
:10032000BB01BC01BD01BE01BF01C001FF30C10066
:10033000C201AE01AF01CE012F08CD00A820CE0131
:100340002C08CD00A820AD019F149F18A529831665
:100350001E088312AC00C208031DB52AAD08031D98
:10036000B429AE080319892A9F149F18B5291E08BD
:10037000FA0083161E088312C3007A08C4000D30E9
:100380002C07C408031DC7294302031C882AA90897
:100390000319882AA808031D882AC3209630CC0098
:1003A00084209F149F18D2291E08FA0083161E0865
:1003B0008312C3007A08C40012302C07C408031D3E
:1003C000E4294302031C872A2E0BFA29AF0ACE0127
:1003D0002F08CD00A820D9200230C300E130CC0086
:1003E0008420C30BEE292F080C3C031DF929023091
:1003F000AE000C2A2E08023C031D0C2AAE01C401DB
:100400003530C300E920B401B3013408CE0033080D
:10041000CD00A8200130AD00AD080319862A3208AE
:10042000C300C5013530C4003408C7003308C60016
:10043000C320B10AC10A41080C3C0319C10141089B
:1004400044078400831345188317800803191A2A68
:10045000013041074607C8004708C9000318C90A08
:100460004908CE004808CD00A8202F08013C031CF5
:100470003D2AAD010130F800842A430831020318F7
:100480004A2AD9200230C800D730CC008420C80BBB
:10049000442A822AB1010130A80083160C140E30C0
:1004A0008312AA000430CB00FA30CC008420CB0B9E
:1004B000542A0930AA000430CB00FA30CC00842042
:1004C000CB0B5D2AA8016430CC0084209F149F18B8
:1004D000672A1E08FA0083161E088312C8007A08CD
:1004E000C9000A302C07C908031D4B2A480203180B
:1004F0004B2AAF03D92041084407840083134518D1
:10050000831780010030F8007808C200882AD920BB
:100510009C2A9F149F188A2A1E08FA0083161E0818
:100520008312C3001E08C400CE004308CD00A820DB
:100530008316061383120613C2080319B42A630034
:100540000430C300FA30CC008420C30BA22AC201BD
:100550000C30AF00C4013530C300E920FF30C100CA
:0C056000B101AD01AF01D920AB2963004F
:04400E00C72FFF3F7A
:00000001FF
;PIC16F886
;CRC=EA54  CREATED="18-เม.ย.-19 13:08"
