:1000000001308A00E9290000FF00030E8301A100EE
:100010000A08A0008A010408A2007708A300780853
:10002000A4007908A5007A08A60003170D08031399
:10003000A70003170F080313A80003170C080313E6
:10004000A90003170E080313AA00831383128B1D44
:100050002B280B1852288C308400001C31280C18D7
:100060005528220884002308F7002408F8002508F2
:10007000F9002608FA00270803178D000313280843
:1000800003178F000313290803178C0003132A0892
:1000900003178E00031320088A00210E8300FF0E31
:1000A0007F0E09008A110A1283288A110A129B28DE
:1000B00094138C11490893000230941B66288C1D00
:1000C0005F2800308316111B01308312F8000800EE
:1000D0004608C7004508C8008316111411186E2879
:1000E000B0308312C90058200230C9005820470898
:1000F000C90058204808C900582083161115111945
:100100007F2883120800831686178312861B972880
:100110000130B0002D0B8E2800308F280130AD004B
:10012000AC010830B300C6013308C50068200B10CD
:100130008A110A1231288E01FF308F00CE308E00D6
:10014000AF0AAC080319B8282F08963C0319AF0171
:10015000AF08031DAF2883160612831206162E0859
:100160002F02031DB7288316061283120612CD280C
:10017000AD080319CD282F0FBE28AF01AF08031D0E
:10018000C52883160613831206172F081E3C031D6D
:10019000CD2883160613831206130C108A110A1237
:1001A0003128733A6F38A03B6F39EB34EE330D05CD
:1001B0000000693AE536731DA01264100D050000B9
:1001C00025322038E53770366510EC32663AA006E5
:1001D0000A003D308400831300080319FC28023014
:1001E000F800F701F70BF228F80BF1289730F70029
:1001F000F70BF828800BEF2808000B08BD008B13C5
:10020000831603178C170C140000000083120313CD
:10021000BD1B8B170318352903170C087F390313EF
:10022000BD0003170D080313BE0003170F080313C7
:10023000BF003D080C1E1A2999003E0803178D00C7
:1002400003133F0803178F0003130B08C0008B1321
:10025000831603178C170C1400000000831203137D
:10026000C01B8B17BC0B3529552903170C0D0E0D20
:100270007F390313BD0003170D080313BE000317D6
:100280000F080313BF003D080C1E442999003E08C7
:1002900003178D0003133F0803178F008D0A0319FE
:1002A0008F0A03100313BC0BFD2808004308F80154
:1002B000420203185E294208F7006A29F701083054
:1002C000C400C20DF70D430877020318F700F80DBC
:1002D000C40B6129080020303D1E3030BE003C08B0
:1002E000F700BC1F7B29F709F70A7708BC002D30FF
:1002F000BE00BD173D143C08C2006430C300562147
:100300007708BC0030307807BF003C08C2000A30D4
:10031000C300562130307707C10030307807C00065
:100320003E08F70030303F0203199A29BD14BD1B67
:100330003D15AE293E08BF002030BE0030304002DF
:100340000319A6293D14BD1BBD14AE29031D3D1480
:10035000031DAE293F08C0002030BF003D19B5295C
:10036000BD18B9293D18BD29C1293E080C1EB62962
:1003700099003F080C1EBA29990040080C1EBE299E
:10038000990041080C1EC229990008008E01FF3017
:100390008F00CE308E0083160C1408308312AE000E
:1003A0000430B900FA30BD00E920B90BD229113070
:1003B000AE000430B900FA30BD00E920B90BDB29EA
:1003C0000130AD00AC0183160C1483128A110A129D
:1003D000662B03081F398300713083168F0090014C
:1003E0000F08031787110C3003139900A2309800EF
:1003F000903083129800AC01AD011130AE00AF0116
:10040000B001B101B2010830B300FF30B400B4153F
:100410003408831687008312341634088316870045
:10042000133093002830831294008316941714130A
:100430008312B601B501831603170908C039890074
:1004400003131F129F1200300317880083128701C5
:1004500088018901831383160908C03989000313B1
:100460001F129F12013003178800831203131F17F6
:100470009F1783169F1783121F140030F8001F0860
:10048000C33978049F004230F700F70B452A00007B
:100490008B158316961783128B1583169615C0300D
:1004A00083128B04253090008E01FF308F00CE30F8
:1004B0008E000130AC001130AE0083160C140430F5
:1004C0008312B900FA30BD00E920B90B622AAC01F1
:1004D00083160C108312AF01B7010230B800AB01D4
:1004E0008B1BAB178B13C6013308C5006820AB1BF1
:1004F0008B1783160C148312B0080319672B9F14F3
:100500009F18802A1E08FA0083161E088312B9005D
:100510007A08BA00BA08031D912A39082D3C03183D
:10052000632BAD080319632BAC08031D632B38083C
:10053000B90083160C100613831206138316861255
:1005400083128616AD010230BC00FA30BD00E920EE
:10055000BC0BA52A83168612831286123308013C2F
:10056000031C0E2BB001D13003178D0000308F001B
:1005700003130B08BC008B13831603178C170C1482
:100580000000000083120313BC1B8B1703170C0819
:100590007F3903190D2B0313BC0003170D08031338
:1005A000BD0003170F080313BE003C080C1ED62A1B
:1005B00099003D0803178D0003133E0803178F00B1
:1005C00003130B08BF008B13831603178C170C142F
:1005D0000000000083120313BF1B8B1703170C0DC1
:1005E0000E0D7F3903190D2B0313BC0003170D08E3
:1005F0000313BD0003170F080313BE003C080C1EB5
:10060000FF2A99003D0803178D0003133E080317C6
:100610008F008D0A03198F0AB82A0313B70AD9303D
:1006200003178D0000308F00031007300313BC0048
:10063000FD203708BC001830BD006B2120300C1E97
:100640001F2B99000D300C1E232B99000A300C1E15
:10065000272B99000430BA00FA30BD00E920BA0B0C
:100660002C2B390837020318422B0130AD008316BA
:100670000C1403308312BA00FA30BD00E920BA0B23
:100680003C2B632BB7010130AC00B303AB018B1BD8
:10069000AB178B13C6013308C5006820AB1B8B1743
:1006A0003308BC001830BD006B21E13003178D000A
:1006B00000308F0003100F300313BC00FD203308FF
:1006C000013C0318B001AC08031DC6296B2B83162F
:1006D0000613831206139F149F186C2B1E08FA0032
:1006E00083161E088312B9007A08BA00AB018B1B6F
:1006F000AB178B133A08C6003908C5006820AB1B3E
:060700008B177C2A630048
:04400E00C42FFF3F7D
:00000001FF
;PIC16F886
;CRC=9505  CREATED="09-เม.ย.-19 21:45"
